S022000076656C6F2D70635F61746D65676133323870625F5354373536352E7372656332
S11300000C9471030C9475130C949E130C948E032E
S11300100C948E030C948E030C948E030C948E0318
S11300200C948E030C948E030C948E030C948E0308
S11300300C948E030C948E030C948E030C948E03F8
S11300400C948E030C948E030C94F2120C948E0375
S11300500C9429130C9405100C948E030C948E03A9
S11300600C948E030C948E030C948E030C948E03C8
S11300700C948E030C948E030C948E030C948E03B8
S11300800C948E030C948E030C948E030C948E03A8
S11300900C948E030C948E030C948E030C948E0398
S11300A00C9402120C948E030C948E030C948E0305
S11300B00C948E036E616E00696E660000407A10C7
S11300C0F35A00A0724E18090010A5D4E80000E805
S11300D07648170000E40B54020000CA9A3B000063
S11300E000E1F505000080969800000040420F00F2
S11300F00000A08601000000102700000000E803B3
S1130100000000006400000000000A00000000007D
S11301100100000000002C76D888DC674F0823DF3C
S1130120C1DFAE59E1B1B796E5E3E453C63AE6510F
S1130130997696E8E6C28426EB898C9B62ED407C36
S11301406FFCEFBC9C9F40F2BAA56FA5F490055AD2
S11301502AF75C936B6CF9676DC11BFCE0E40D47F7
S1130160FEF520E6B500D0ED902E0300943577051A
S11301700080841E080000204E0A000000C80C33D2
S11301803333330F986E12831141EF8D2114893B61
S1130190E65516CFFEE6DB18D1844B381BF77C1DE1
S11301A0901DA4BBE424203284725E228100C9F134
S11301B024ECA1E53D271002050505050101061300
S11301C01A00001A001A000000000001A5200953BB
S11301D03F7FF0FFEB002B13533F7F901DE0F8525D
S11301E024A234C0F17DB00E002C10533F7FF0CF19
S11301F017AE1C231EE90313002D0D533F7FF0E1BE
S113020044251FFC21002E0D533F7FF0BF5CB872C4
S11302101F80003040533F87484442608310D820F9
S1130220043608810D42608310D820043608810DFD
S113023042608310D820043608810D42608310D8B0
S113024020043608810D42608310D820043688B813
S11302500F2000310E533F1FA31970FCFF7F1F684E
S1130260003214533F87484470FC13312144F18B0E
S113027091887D00013312533F87484470FC2B2E34
S113028038FE44DC071000342A533F07810D4260D6
S11302908310D820043608810D42608310D82004CE
S11302A03608810D42608310D8206270FCEF030889
S11302B0003514533F8748444288E22F462282E3A4
S11302C04FC47D00013628533F8748444288E22FBB
S11302D0462212021B84C00621B041086C10021B86
S11302E084C00621B041086C10711F4000370E53C2
S11302F03F0B684070FCFF7F1F4000383C533F8732
S1130300484442608310D820043608810D4260833B
S113031010D820043608810D4260838809810D427B
S1130320608310D820043608810D42608310D820E1
S1130330043688B80F20003928533F874844426068
S11303408310D820043608810D42608310D820041D
S11303503608810D42608388C1F127E23E80003A6D
S113036011533F7FF044E1CA7D70A470E53E000163
S113037000000004FFFF0000400203020404010225
S113038005080B00010C000C02014E0000034D2077
S113039007B8C7E7FF082107B8C7E7FF082207B86F
S11303A0C7E7FF082307B8C7E7FF082407B8C7E76C
S11303B0FF082507B8C7E7FF082607B8C7E7FF08FF
S11303C02707B8C7E7FF08280AB8C751F37E477460
S11303D018290AB8C7D391BC5F75102A0CB8C7692D
S11303E09CE331A9F30B002B0CB8C707F3E230846C
S11303F0799D032C08B8C78B73FE072D09B8C7E78E
S1130400380C393F2E09B8C7E7DF641D052F0CB837
S1130410C7AEC7F5B81EE714003014B8C738855105
S1130420188551188551188551180D3B063108B8A7
S1130430C7D4FB770C320DB8C7B8771AA6BC3EEC0C
S11304401800330CB8C7B8370E79A761C700341049
S1130450B8C708A3300AA3300AA361EF8E01350D93
S1130460B8C738E5F561EF34EC18003611B8C73871
S1130470E5F5610AA3300AA3301A760C3709B8C728
S1130480B8F7EF18003814B8C73885511885D1303B
S11304908551188551180D3B06390FB8C738855159
S11304A01885D1B0771A760C3A0BB8C76795754E94
S11304B0B28E023B07B8C7E7FF083C07B8C7E7FF9F
S11304C0083D07B8C7E7FF083E07B8C7E7FF083F7E
S11304D007B8C7E7FF084007B8C7E7FF084116B8E1
S11304E0C73824699226699226C390A4499AA449DC
S11304F09A43004216B8C7382469922669324C6977
S11305009226699226C3904300430CB8C7382479D5
S1130510BF0F430E014414B8C738A5499AA4499A99
S1130520A4499AA4499A0C3B06450FB8C7382479C4
S11305307DD0F2F661C82100460DB8C73824797D14
S1130540D0F2EE14004713B8C7382479D390A449E5
S11305509AA4499A0C430E014816B8C748933449E3
S113056093341986244DD2244DD224CD2100490838
S1130570B8C7CBFB77144A0FB8C71BF25ED2244D21
S1130580D268D031004B13B8C7489330CA4AE19AB5
S1130590A4519815A33487004C0BB8C7C8FBFB3093
S11305A0E410004D14B8C748134DE9A99226699286
S11305B026699226690E014E16B8C7101331A92573
S11305C0B524AA44952CA9254525D421004F15B856
S11305D0C719A43449933449933449933449A34102
S11305E0C7005010B8C7382469922669320C49DE16
S11305F09D025115B8C719B2300AA3300AA3300AB4
S1130600A3300AB36187005215B8C738246992260B
S113061069320C49350AB36294E61000530FB8C727
S1130620382479FB30E42DC3904300540AB8C7380A
S11306308479BF93015516B8C74893344993344914
S11306409334499334499361C821005612B8C7487A
S1130650933449A3AC4D11933489F31C055714B852
S1130660C74893344993344993A81255FA8BA64347
S1130670005811B8C748A3AC3189F33809B3A6347C
S113068087005910B8C7489334499334198630EF1A
S11306908E025A0DB8C738E4B1EA733E0C39045BD4
S11306A00BB8C718C2BCDF871C055C11B8C7C8915A
S11306B03C47F21CC97324CF911C035D0BB8C71AC5
S11306C0F2FE38E418005E0BB8C78B9330CBF937D1
S11306D0005F09B8C7E73F0D3B0600000004FFFFB9
S11306E0000011241FBECFEFD8E0DEBFCDBF11E064
S11306F0A0E0B1E0E0E9F7E302C005900D92AA3B67
S1130700B107D9F726E0AAEBB1E001C01D92A73CDE
S1130710B207E1F70E94E2130C94C61B0C9400008C
S11307202F923F924F925F926F927F928F929F92FD
S1130730AF92BF92CF92DF92EF92FF920F931F93EB
S1130740CF93DF93CDB7DEB728970FB6F894DEBF0B
S11307500FBECDBF98878F836B015A0139012801E1
S11307601A01200E311E4B01820E931E8101940149
S11307700E942F0B882309F484C096012E0D3F1D7F
S11307803A832983C5018E0D9F1D9C838B838E180C
S11307909F089401215031093E832D8341018E1815
S11307A09F0831E0831A910802E09701AC01698146
S11307B07A818F8198850E949B0501E097014B8186
S11307C05C816D817E818F8198850E949B0504E008
S11307D09701A40169817A818F8198850E949B0584
S11307E008E09701A4016D817E818F8198850E9424
S11307F09B0583010E191F090E191F09C2018E19C9
S11308009F099C012E193F09790129803A803FEF05
S1130810231A330A8B809C808FEF881A980A03303E
S11308201105A8F00250110991E0491A51089801E4
S1130830A501B1018F8198850E94EA0AA501440DA2
S1130840551D9801B1018F8198850E94EA0A23E021
S1130850E216F104B0F032E0E31AF10881E0681A1C
S113086071089701A401B6018F8198850E94F00A4E
S1130870B601660D771D9701A4018F8198850E94AA
S1130880F00A28960FB6F894DEBF0FBECDBFDF91F5
S1130890CF911F910F91FF90EF90DF90CF90BF9079
S11308A0AF909F908F907F906F905F904F903F900C
S11308B02F9008950F931F93DC01ED91FC911197F4
S11308C0208992960D911C919397629FB0011124F7
S11308D0660F771F660F771F660F771F060F171FA8
S11308E060E00E949F0E1F910F910895EF92FF9276
S11308F00F931F93CF93DF938C01DC019496FC90AC
S113090094979596DC919597ED91FC91E188C0E0E0
S11309104D2F6C2FC8010E945A04CF5FDF5FCF15A3
S113092010F4DE15A8F3DF91CF911F910F91FF9082
S1130930EF900895FC01A081B18150969C9144A14F
S1130940949FA0011124440F551F440F551F440FB9
S1130950551F60E070E082A193A10E94F81A0895E7
S1130960CF93DF93EC010E947604CE010E94F90E2E
S1130970DF91CF9108958F929F92AF92BF92CF92C1
S1130980DF92EF920F931F93CF93DF935C016B0180
S11309904A01E901E0FE11C0A80148195909B90149
S11309A06C0D7D1D0E94F60AA8014C195D09B40165
S11309B06C0F7D1FC5010E94F60AE1FE12C0A8015A
S11309C048195909BE016C197D09C5010E94F60A2E
S11309D0A8014C195D09BE0168197909C5010E9475
S11309E0F60AE3FE12C0A801480D591DBE016C0DA4
S11309F07D1DC5010E94F60AA8014C0D5D1DB401C0
S1130A006C0F7D1FC5010E94F60AE2FE12C0A80108
S1130A10480D591DBE016C197D09C5010E94F60AD5
S1130A20A8014C0D5D1DBE0168197909C5010E941C
S1130A30F60ADF91CF911F910F91EF90DF90CF9045
S1130A40BF90AF909F908F9008952F923F924F92B6
S1130A505F926F927F928F929F92AF92BF92CF924A
S1130A60DF92EF92FF920F931F93CF93DF9300D007
S1130A7000D0CDB7DEB72C017A8369831A015901FE
S1130A80F02E81E090E0821B930B9C838B83662481
S1130A907724621A730A660C771CE02E8A019B0184
S1130AA0A50160E070E0C2010E94BB04C12CD12CFE
S1130AB088248394912C25C08B819C81992364F094
S1130AC091E0A91AB10882E0680E711C8B819C81A7
S1130AD0860D971D9C838B839FEFC91AD90A82E0E8
S1130AE0880E911C8B819C81880D991D9C838B831E
S1130AF0EF2C810129813A81A501B601C2010E942E
S1130B00BB04CA14DB04C0F20F900F900F900F9037
S1130B10DF91CF911F910F91FF90EF90DF90CF90D5
S1130B20BF90AF909F908F907F906F905F904F9009
S1130B303F902F9008959F92AF92BF92CF92DF92F1
S1130B40EF92FF920F931F93CF93DF935C017B018E
S1130B506A01E901902E8A01020F131F260F371F25
S1130B600F5F1F4F2F5F3F4F4C1B5D0B6C1B7D0BAB
S1130B700E942F0B882339F0092D9E01A601B7018D
S1130B80C5010E942505DF91CF911F910F91FF9020
S1130B90EF90DF90CF90BF90AF909F90089528E0A2
S1130BA0FC0120838AEB91E00895CF92DF92EF92CB
S1130BB0FF920F931F93CF93DF931F92CDB7DEB7AE
S1130BC07C016B0189019A014FE15EE067E77FE0F8
S1130BD00E94DF0FCE0101960E94CF05860124E515
S1130BE03BE04981BC01C7010E94970C0F90DF9143
S1130BF0CF911F910F91FF90EF90DF90CF900895C8
S1130C00860F911DFC0184910895FC01E60FF11DEE
S1130C10849190E03196982F8827E4918E0F911D4E
S1130C20089580E090E008950F931F93CF93DF938E
S1130C30EC018B0160E0C8010E940006888361E03A
S1130C40C8010E940006898362E0C8010E94000670
S1130C508A8363E0C8010E9400068B8364E0C801B4
S1130C600E9400068C8365E0C8010E9400068D8303
S1130C7066E0C8010E9400068E8367E0C8010E94F6
S1130C8000068F8368E0C8010E940006888769E037
S1130C90C8010E94000689876AE0C8010E94000614
S1130CA08A876BE0C8010E9400068B876CE0C8014C
S1130CB00E9400068C876DE0C8010E9400068D87A3
S1130CC06EE0C8010E9400068E876FE0C8010E9492
S1130CD000068F8760E1C8010E940006888B61E1ED
S1130CE0C8010E9405069A8B898B63E1C8010E94A2
S1130CF005069C8B8B8B65E1C8010E9405069E8BC3
S1130D008D8BDF91CF911F910F910895DC011A967D
S1130D104C911A97ED91FC911197249130E0042E97
S1130D2002C0359527950A94E2F7822F942F960FE7
S1130D30983080F088E0841B31961196FC93EE93F2
S1130D40E491F0E002C0EE0FFF1F8A95E2F78E2FC8
S1130D50822B985021E030E002C0220F331F6A95A5
S1130D60E2F721501A969C93822308950F931F93C0
S1130D70CF93DF93EC018C01085B1F4FF801718363
S1130D806083128673966081C8010E948606F8010A
S1130D90808774966081C8010E948606F801818765
S1130DA0BC968081F801848791E0811190E0C85B52
S1130DB0DF4F9D87DF91CF911F910F910895CF93BE
S1130DC0C62F0E948606C15021E030E002C0220FE7
S1130DD0331FCA95E2F7821BCF910895213049F061
S1130DE018F0223059F00FC0840F911D47FD9A95D9
S1130DF00895860F911D67FD9A950895841B9109A6
S1130E0047FD93950895861B910967FD9395089571
S1130E10213049F018F0223059F00FC0860F911D8F
S1130E2067FD9A950895841B910947FD939508954C
S1130E30861B910967FD93950895840F911D47FDC5
S1130E409A9508956F927F928F929F92AF92BF92DC
S1130E50CF92DF92EF92FF920F931F93CF93DF9382
S1130E607C01162F742EFC01E85BFF4F9680D7811E
S1130E70F701E85BFF4FC085C9191C1710F06C2EF1
S1130E8001C0612EF701E85BFF4FC480D580068561
S1130E908D2E202F4D2F692D828193810E9408076A
S1130EA05C01202F4D2F692DC6010E94EE0677208C
S1130EB071F0F701E85BFF4F2485BC962083262D53
S1130EC030E0AC01B501C7010E94510A10C0F7011E
S1130ED0E85BFF4F238521110AC02585BC9620833A
S1130EE0262D30E0AC01B501C7010E94510A1C1740
S1130EF020F01C1BDF5F912CBBCF612F690DF70124
S1130F00E85BFF4F66838782DF91CF911F910F913A
S1130F10FF90EF90DF90CF90BF90AF909F908F9015
S1130F207F906F9008956F927F928F929F92AF926D
S1130F30BF92CF92DF92EF92FF920F931F93CF93C2
S1130F40DF93EC017C0188E4E80EF11CCE010E94E1
S1130F50B606FE01EF5AFF4FC0803C966081C70180
S1130F600E94DF06782EFE01E25AFF4F6081C7011E
S1130F700E94DF06182FFE01E15AFF4F6081C7016E
S1130F800E94DF06D82EF701608416140CF09BC073
S1130F9006851C0D1195202F412F672D8281938189
S1130FA00E9408075C01F70193838283202F412F5D
S1130FB0672D848195810E94EE06F70195838483D1
S1130FC0013089F028F0023001F10330A1F143C06F
S1130FD09501260D311D67FC3A958C010C0D111DF0
S1130FE0C7FC1A953AC0A5014C195109C7FC539581
S1130FF095012F5F3F4F8C01060D111D67FC1A955B
S1131000BA016F5F7F4F5B0128C0A50146195109E2
S113101067FC539595012F5F3F4FBC016C19710913
S1131020C7FC73958C010F5F1F4FCB010196FA012A
S113103031965F0112C095012C0D311DC7FC3A9504
S1131040AC014619510967FC53958C010F5F1F4F82
S1131050CA01019602C08C019501AC01B501CE0113
S11310600E942F0B882379F1FE01E85BFF4F168263
S11310701782FE01E75AFF4F6081C7010E9486066E
S1131080082FFE01E65AFF4F6081C7010E948606C1
S1131090182F40E0602FCE010E94220741E0612F0B
S11310A0CE010E94220761E0C7010E9486068111D9
S11310B0F0CFFE01E85BFF4F87818C15D4F2848565
S11310C0CC58DF4F88838D2DDF91CF911F910F91E5
S11310D0FF90EF90DF90CF90BF90AF909F908F9054
S11310E07F906F900895EF92FF920F931F93CF9389
S11310F0DF93FC01EC5BFF4FC081D18167966F3FAA
S1131100710509F038F56136710530F0B6968081C5
S11311109181C80FD91F0AC06134710538F0FC01F0
S1131120E859FF4F80819181C80FD91FCE010196E4
S1131130FC012491222309F43CC0FE01249130E0F7
S11311406217730711F4019639C0FC018491C80F2A
S1131150D11DECCF8B01FC01E459FF4F80819181BB
S1131160C80FD91F7E0160E0C7010E940506C80FA1
S1131170D91F62E0C7010E940506F4E0EF0EF11CDE
S11311808017910780F3FE01849190E0982F8827BF
S11311903196E4918E2B009779F00817190719F40A
S11311A0CE0103960BC0FE013296E491CE0FD11D01
S11311B0EACF80E090E002C080E090E0DF91CF9140
S11311C01F910F91FF90EF900895CF93DF93EC015F
S11311D0FC01E65BFF4F7183608332965183408349
S11311E0B9010E947308009741F0BC01CE010E942E
S11311F09307082E000C990B02C080E090E0DF9169
S1131200CF910895CF92DF92EF92FF920F931F93A5
S1131210CF93DF93EC018B017A016901FC01EA5A57
S1131220FF4F8081813089F028F08230C9F083300B
S113123011F12BC0FE01EA5BFF4F0190F081E02D1C
S1131240CE010995E80EF91E20C0FE01EA5BFF4FAE
S11312500190F081E02DCE010995081B190B15C0F2
S1131260FE01EA5BFF4F0190F081E02DCE0109956C
S1131270E81AF90A0AC0FE01EA5BFF4F0190F08107
S1131280E02DCE010995080F191F9601A701B80199
S1131290CE010E94E508DF91CF911F910F91FF903D
S11312A0EF90DF90CF900895AF92BF92CF92DF92EC
S11312B0EF92FF920F931F93CF93DF93EC015B01A7
S11312C06A0189010E94D40CE12CF12CEA81FB8192
S11312D0D8016C91CE0109958F3FBFEF9B0739F17F
S11312E00F5F1F4F8E3F2FEF920781F39C01A601E2
S11312F0B501CE010E9402099C01FE01EA5AFF4F8A
S11313009081913049F028F0923049F0933051F0B7
S11313100BC0A20EB31E08C0C20ED31E05C0A21A73
S1131320B30A02C0C21AD30AE20EF31ECFCFC7011A
S1131330DF91CF911F910F91FF90EF90DF90CF90AD
S1131340BF90AF900895E7ECFCE0DC011396FC93AA
S1131350EE9312970E9454090895FC01EC5BFF4F31
S113136020813181232BE1F1B09620813C962083AA
S11313703B9740813C96408332973081332381F1FF
S1131380313079F439973081231714F43A96308345
S1131390FC01E959FF4F2081241714F53A96208364
S11313A00895022E000C330BFC01EF59FF4FE0812E
S11313B0DC01AD59BF4F5C91652F052E000C770BF6
S11313C06E0F711DE7FD7A95261737071CF41D96DD
S11313D0E50FEC93541724F4FC01EF58FF4F5083AE
S11313E008958A5B9F4F21E136E0FC01318320831D
S11313F00895CF93DF93FC01EC5BFF4F2081318193
S11314002617370751F0EC0171836083895A9F4F87
S11314100E941406CE010E94AD09DF91CF91089578
S1131420CF93DF93EC01A881B981EB01E881F981C5
S1131430EA0FFB1FEA17FB0738F4A217B30718F4E7
S1131440F901319701C0DA01A217B307A8F44E17C6
S11314505F07A0F4A417B50708F0AD012E173F07E6
S113146008F09F01FC0151834083241B350BEB01E1
S11314703983288381E003C080E001C080E0DF91EC
S1131480CF9108950F93DC019A96ED91FC919B976F
S11314904E1B5F0B5E96ED91FC915F9709950F9142
S11314A00895EF92FF920F931F93CF93DF9300D091
S11314B000D000D0CDB7DEB77A8369835C834B83D9
S11314C03E832D83FC01E259FF4F2081222309F43E
S11314D074C02D813E812115310509F46EC022307E
S11314E03105B0F0023041F4621B730B9B012F5F96
S11314F03F4F3A8329830CC0033051F44B815C8104
S1131500DA01A21BB30B9D012F5F3F4F3C832B835A
S11315107C01102F117000FD1DC0FC0120AD31AD08
S11315208B819C818217930708F447C022AD33ADA9
S11315308217930708F041C026A937A944A955A9E1
S1131540BE016B5F7F4FCE0101960E94100A81118C
S113155023C033C0DC01D4962D913C91D597898169
S11315609A818217930748F1D6962D913C91D7978B
S11315708217930710F5DA962D913C91DB97D89654
S11315804D915C91D997BE016B5F7F4FCE0103965D
S11315900E94100A882389F0D7019096ED91FC915E
S11315A091970480F581E02D2D813E814B815C81F2
S11315B069817A81012FC701099526960FB6F8949F
S11315C0DEBF0FBECDBFDF91CF911F910F91FF9072
S11315D0EF9008950F9300E00E94510A0F9108952F
S11315E00F9301E00E94510A0F9108950F93FC019B
S11315F080AD91AD48175907A8F082AD93AD481757
S1131600590780F484A995A96817790758F086A921
S113161097A96817790730F4CF0100E021E030E0A2
S11316200E94510A0F9108954617570740F48217F4
S1131630930768F02417350760F481E00895821752
S1131640930748F42417350740F481E0089581E0B6
S1131650089580E0089580E0089580E00895CF9291
S1131660DF92EF92FF920F931F93CF93DF93EC01DE
S11316707B01690198016AAD7BAD88AD99AD0E948B
S1131680140B882341F06EA97FA99601A7018CA9A8
S11316909DA90E94140BDF91CF911F910F91FF9090
S11316A0EF90DF90CF9008950F931F93CF93DF9324
S11316B0DC01CA01542F5770C1E0D0E0052E02C0EE
S11316C0CC0FDD1F0A94E2F71C2FFD01EC58FF4FED
S11316D0E081E23010F040E001C04C2FE13009F429
S11316E010E0887FED91FC911197C089C89FF001AB
S11316F0C99FF00D112492968D919C9193976E0F32
S11317007F1FFC01E60FF71F011108C08081842BA5
S11317108127819321503109C9F721C09081942BED
S1131720912790835F5F577021503109511110C088
S113173096968D919C919797E80FF91FED01CC58DF
S1131740DF4F8881823008F441E0813021F404C005
S1131750440F110F01C011E021153105F9F6DF9195
S1131760CF911F910F910895CF93DF93FC01A08136
S1131770B18184A190E09C01220F331F220F331FFB
S1131780220F331F31A720A750962C91509730E099
S1131790220F331F220F331F220F331F37A326A319
S11317A075A1272F30E0A901440F551F440F551F81
S11317B0440F551F53A742A7280F391F51966C9108
S11317C05197C62FD0E0C217D30718F4CE01871B58
S11317D09109880F991F880F991F880F991F55A782
S11317E044A7840F951F97A786A754968D919C9123
S11317F0559791AB80AB56968D919C91579793AB2F
S113180082ABDF91CF9108950E94B40B08950F939A
S11318101F93CF93DF93EC01FC01EE5BFF4F00813C
S113182011812EAD3FAD3297408151816CAD7DADBC
S11318300E942F0B811104C0C259DF4F18822FC0A0
S113184081E0FE01E259FF4F80832CA93DA98CADB4
S11318509DAD2817390710F49DAB8CAB2EA93FA979
S11318608EAD9FAD8217930710F49FAB8EAB28AD5E
S113187039ADFE01E05CFF4F808191812817390763
S113188010F499AF88AF2AAD3BADFE01EE5BFF4F7C
S1131890808191818217930710F49BAF8AAFDF9107
S11318A0CF911F910F910895FC0115AA14AA80A944
S11318B091A997AB86AB84A595A591AF80AF86A57A
S11318C097A593AF82AFCF010E94070C08950F93A1
S11318D0FA01DC01D2964D915C91D3974E1B5F0BBC
S11318E000FF03C0421B530B02C0415051090E9428
S11318F0420A0F910895DC01DD961C921E92DC973A
S1131900FC01E05CFF4F118210822FEF3FEFFC01DE
S113191037AF26AFEE5BFF4F318320839096ED9176
S1131920FC9191970280F381E02D099508950F931E
S11319301F93CF93DF93EC01FC01EC5BFF4F11820B
S113194010823F8F2E8F7BA36AA34CA31DA23F96C8
S11319501082B096108234971082359681E080838D
S11319603196808319A308A3D801ED91FC91CE018F
S11319700995CE010E947B0CCE010E94F109CA5A3E
S1131980DF4F1882DF91CF911F910F910895662345
S113199029F06A3031F0862F90E008958FEF9FEFA1
S11319A008958FEF9FEF0895FC01108E0895462F40
S11319B0DC011896ED91FC91199720E030E060E28B
S11319C0099508959A01DC011896ED91FC911997F7
S11319D0462F67E109950895CF93DF931F92CDB702
S11319E0DEB76983AE014F5F5F4F61E00E94E20C96
S11319F00F90DF91CF910895BF92CF92DF92EF9233
S1131A00FF920F931F93CF93DF93EC01B42E7901D0
S1131A10A881B9811C968C911C978170D82E81E085
S1131A20C82ECD18683109F456C028F46431E9F1A0
S1131A306731B9F174C0693109F45FC0603209F4E7
S1131A4044C06DC0F70101917F01BA9410E027C032
S1131A50002334F441E061E4CE010E94BD0F05C0CF
S1131A6040E061E4CE010E94BD0F000F4C2D60E404
S1131A70CE010E94BD0FE881F98146816CE2CE015E
S1131A800E94BD0F4D2D60E4CE010E94BD0FE88180
S1131A90F98147816CE2CE010E94BD0F1F5F1830AF
S1131AA0B8F2B110CFCF81E03BC011964C9169E4FC
S1131AB0CE010E94BD0FE881F9814485417060E444
S1131AC0CE010E94BD0F81E02BC06AE4CE010E94CA
S1131AD0BD0F81E025C04C9169E4CE010E94BD0F89
S1131AE0EA85FB85A881B98120E030E012964C910B
S1131AF06CE2CE01099581E013C0EA85FB8520E004
S1131B0030E013964C916CE2CE010995E881F9819D
S1131B10418169E4CE010E94BD0F81E001C080E0F3
S1131B20DF91CF911F910F91FF90EF90DF90CF90B5
S1131B30BF900895462FDC011696ED91FC911797FE
S1131B4020E030E065E109950895462FDC01169602
S1131B50ED91FC91179720E030E066E10995089536
S1131B609A01DC011696ED91FC911797462F67E1D7
S1131B7009950895DC011696ED91FC91179720E0E4
S1131B8030E040E068E109950895DC011696ED9196
S1131B90FC91179720E030E040E069E10995089551
S1131BA0EF92FF920F931F93CF93DF931F92CDB7C2
S1131BB0DEB77C018B01D8016D918D016731B9F0DD
S1131BC018F4653130F433C06A31E8F06E3F31F116
S1131BD02EC0FD0141918F014983D7011696ED91E5
S1131BE0FC91179720E030E0C7010995E4CFFD018F
S1131BF081918F018983AE014F5F5F4F61E0C7011F
S1131C000E94B00DD8CFD7011696ED91FC9117978D
S1131C1020E030E040E0C7010995CDCFFD014191BE
S1131C208F01498369E2C7010E94BD0FC4CF0F90A1
S1131C30DF91CF911F910F91FF90EF900895EF9254
S1131C40FF920F931F93CF93DF938C01C62FD42F52
S1131C5079016631A1F028F46431E9F0653131F09D
S1131C6025C06731A9F06A3108F515C060E00E940B
S1131C70D70C6D2FC8010E94EC0C81E018C060E005
S1131C800E94D70C6D2FC8010E94EC0C81E00FC09C
S1131C9061E00E94D70CD8011896ED91FC91199738
S1131CA097014D2F6C2FC801099501C080E0DF9189
S1131CB0CF911F910F91FF90EF900895FC017183D4
S1131CC06083FB012289FC01248B0895CF93DF9369
S1131CD0EC01EA85FB8520E030E040E068E209950C
S1131CE0EE81FF8120E030E040E064E1CE0109951F
S1131CF041E06BE4CE010E94BD0FE881F98144818B
S1131D0069E2CE010E94BD0F40E06BE4CE010E9467
S1131D10BD0FE881F981448169E2CE010E94BD0FC3
S1131D2041E06BE4CE010E94BD0FE881F981458159
S1131D3069E2CE010E94BD0FDF91CF9108950F9308
S1131D401F93CF93DF9300D000D01F92CDB7DEB79F
S1131D506C834D832B831A830983DC011496ED91E4
S1131D60FC9115979E012F5F3F4F41E06FE009956D
S1131D700F900F900F900F900F90DF91CF911F91C4
S1131D800F910895DC011496ED91FC91159720E0D4
S1131D9030E040E069E009950895DC011496ED9186
S1131DA0FC91159720E030E040E06AE00995089541
S1131DB0462FDC011496ED91FC91159720E030E05C
S1131DC06BE009950895462FDC011496ED91FC9182
S1131DD0159720E030E06DE009950895462FDC0169
S1131DE01496ED91FC91159720E030E06EE0099592
S1131DF00895DC011496ED91FC91159720E030E0F4
S1131E0040E060E109950895DF92EF92FF920F930D
S1131E101F93CF93DF938C01C42F79016E3009F4A3
S1131E204CC06F3021F06B3009F058C038C00E94AC
S1131E30BA0DF701D380DD0CDD0CDD0CF8018489CB
S1131E40D80E6D2D62956F706061C8010E949A0D65
S1131E506D2D6F70C8010E949A0DF7016481606B4B
S1131E60C8010E949A0DF701D281DD0FDD0FDD0F4D
S1131E70E080F1808D2D90E08D0F911D85389105C6
S1131E8010F0D4E8DD19A7016D2FC8010E94B00D30
S1131E90C150C9F7C8010E94C50D81E020C041119D
S1131EA006C06DE871E00E94D00D81E018C066E8BC
S1131EB071E00E94D00D81E012C00E94BA0D61E869
S1131EC0C8010E949A0D6C2F66956695C8010E9400
S1131ED0A50DC8010E94C50D81E001C080E0DF911D
S1131EE0CF911F910F91FF90EF90DF9008950F9382
S1131EF01F93CF93DF938C01C62FD42F0E94040F1E
S1131F00811135C0CA3059F0CD3099F0C93081F50E
S1131F1060E671E0C8010E945E0E81E029C0C8013C
S1131F200E94660E6FE371E0C8010E94D00D81E04B
S1131F301FC0D1110EC06FE771E0C8010E94D00D1F
S1131F40D801ED91FC911197828954968C9381E08C
S1131F500FC068E771E0C8010E94D00DD801ED916F
S1131F60FC911197838954968C9381E001C081E0A0
S1131F70DF91CF911F910F910895DC011A96ED9195
S1131F80FC911B9720E030E00995089580E00895C6
S1131F90FC011182108286EC9FE0958384839783F1
S1131FA086839187808793878287158A108E14860B
S1131FB01586168617868FEF868B828F0895AF92CB
S1131FC0BF92CF92DF92EF92FF920F931F93CF9322
S1131FD0DF93EC015B016A0179010E94C80FBD82A5
S1131FE0AC82DF82CE82F986E8861B870A87CE011F
S1131FF00E94C20EDF91CF911F910F91FF90EF903D
S1132000DF90CF90BF90AF9008951F920F920FB6BC
S11320100F9211248F9381E0809300018F910F9090
S11320200FBE0F901F901895ECE7F0E08081806C54
S11320308083EAE7F0E080818F68808308956134CB
S113204041F128F4683259F06034C9F049C06A3467
S1132050A1F16B34E1F1693409F042C024C087B1C5
S1132060846087B987B1886087B98DB188608DB97C
S113207087B1826087B987B1816087B931C0442351
S113208021F088B1846088B92BC088B18B7F88B96E
S113209027C0442321F088B1886088B921C088B161
S11320A0877F88B91DC0442321F08EB188608EB922
S11320B017C08EB1877F8EB913C0442321F088B135
S11320C0826088B90DC088B18D7F88B909C0442366
S11320D021F088B1816088B903C088B18E7F88B946
S11320E081E00895662399F0DC01ED91FC9111974C
S11320F021E030E0A90112960C9002C0440F551F54
S11321000A94E2F7CA019081892B80830895DC0147
S1132110ED91FC91119721E030E0A90112960C9009
S113212002C0440F551F0A94E2F7CA0180959081BA
S1132130892380830895FC0130812181613099F0E5
S113214018F06230F1F0089581E090E0028002C05E
S1132150880F991F0A94E2F7E32FF22F809592914A
S113216089238083089581E090E0028002C0880F73
S1132170991F0A94E2F7E32FF22F9291892B80831F
S1132180089581E090E0AC01028002C0440F551F25
S11321900A94E2F7A32FB22F40952E9142234C9339
S11321A0A081B181028002C0880F991F0A94E2F7CE
S11321B080959C9189238C930895DC01ED91FC9189
S11321C0119712962C91DF0112978C9190E0022EB8
S11321D002C0959587950A94E2F780FF0CC081E0D0
S11321E090E002C0880F991F2A95E2F780959081AC
S11321F089238083089581E090E002C0880F991FAD
S11322002A95E2F79081892B808308958091BA05FD
S113221080618093BA058091BB0581618093BB0581
S113222022E030E041E051E06BE082E30E948E1254
S113223021E030E04BEB55E06DE082E30E948E122A
S113224021E030E04AEB55E06FE082E30E948E1219
S11322500895982F92959F70990F292F220F220F7E
S1132260920F8F70890F08950F931F93CF93DF936D
S1132270CDB7DEB727970FB6F894DEBF0FBECDBF3C
S11322808C0127E030E0AE014F5F5F4F60E082E3F6
S11322900E94131289810E942911F80180838A8186
S11322A00E942911F80181838B810E942911F80170
S11322B082838C8187838D810E942911F801838315
S11322C08E810E942911F80184838F810E94291133
S11322D090E0F8019683858327960FB6F894DEBFC5
S11322E00FBECDBFDF91CF911F910F91089585EA65
S11322F08093DC0080E090E005C00196803426E005
S1132300920730F4209103012830B9F780E0089552
S113231081E0089585E98093DC00089585EA80933F
S1132320DC0080E090E005C00196803426E092074E
S113233030F4209103012031B9F780E0089581E061
S1132340089585E88093DC0080E090E005C0019664
S1132350803426E0920730F4209103012831B9F744
S113236080E0089581E0089585E88093DC0080E0B2
S113237090E005C00196803426E0920730F4209165
S113238003012832B9F780E0089581E0089585E8D3
S11323908093DC0080E090E005C00196803426E064
S11323A0920730F4209103012034B9F780E00895B6
S11323B081E00895882389F085EC8093DC0080E037
S11323C090E005C00196803426E09207B8F420918D
S11323D003012035B9F780E0089585E88093DC0097
S11323E080E090E005C00196803426E0920740F436
S11323F0209103012835B9F780E0089581E008951C
S113240081E008951F920F920FB60F9211248F93BB
S11324108091D900887F809303018F910F900FBE24
S11324200F901F901895CF92DF92EF92FF920F9327
S11324301F93CF93D82EC62E7A0189010E9477115B
S1132440C82F882321F00E948A118C2F5FC08D2D04
S1132450880F8093DB000E94A111C82F882321F0EC
S11324600E948A118C2F52C0C092DB000E94B411CA
S1132470C82F882321F00E948A118C2F47C00E9404
S11324808E11C82F882321F00E948A118C2F3EC000
S11324908D2D90E0880F991F81608093DB000E944E
S11324A0C711C82F8823C1F00E948A118C2F2EC017
S11324B081E00E94DA11C82F882321F00E948A113A
S11324C08C2F24C0F701EC0DFD1D8091DB0080836F
S11324D08FEFC81AD80A02C0C12CD12CC8010197A9
S11324E0C816D90628F380E00E94DA11C82F882381
S11324F021F00E948A118C2F09C0F701EC0DFD1DFB
S11325008091DB0080830E948A118C2FCF911F91D0
S11325100F91FF90EF90DF90CF900895CF92DF92CC
S1132520EF92FF920F931F93CF93182F062F6A01F8
S113253079010E947711C82F882321F00E948A1103
S11325408C2F31C0110F1093DB000E94A111C82FF2
S1132550882321F00E948A118C2F25C00093DB0070
S11325600E94B411C82F8823B1F00E948A118C2FC5
S11325701AC0F601E00FF11F80818093DB000E94F6
S1132580B411C82F882321F00E948A118C2F0BC00C
S11325900F5F1F4F02C000E010E00E151F0548F347
S11325A00E948A118C2FCF911F910F91FF90EF9071
S11325B0DF90CF9008959B01AC0160E074E284EF5A
S11325C090E00E94A219DA01C9014097A109B1095A
S11325D0B695A795979587958093D80085E08093C5
S11325E0DC0008951F920F920FB60F9211248F935F
S11325F09F93EF93FF93E0913C06F0913D06809109
S1132600C600E454FA4F8083E0913C06F0913D0605
S1132610E454FA4F80818D3051F481E080930401B9
S1132620E0913C06F0913D06E354FA4F108280910C
S11326303C0690913D06019690933D0680933C069E
S1132640FF91EF919F918F910F900FBE0F901F906C
S113265018951F920F920FB60F9211248F9381E059
S1132660809305018F910F900FBE0F901F901895C6
S1132670442339F0E0ECF0E0208122602083A8E0DC
S113268001C0A0E1B0E09B01AC010E94D3199B0101
S1132690AC0160E074E284EF90E00E94A219BA01F8
S11326A0A9014150510961097109DB01CA01882757
S11326B09F70AA27BB27892F9A2FAB2FBB27809304
S11326C0C5004093C400E1ECF0E08081886D808314
S11326D086E88093C2000895909105019923E1F35F
S11326E0109205018093C60008951F920F920FB6B1
S11326F00F9211242F933F934F935F936F937F9384
S11327008F939F93AF93BF93EF93FF9381E0809355
S11327103E068CE191E00E94DD10FF91EF91BF91A4
S1132720AF919F918F917F916F915F914F913F9165
S11327302F910F900FBE0F901F9018951F920F921C
S11327400FB60F9211242F933F934F935F936F9380
S11327507F938F939F93AF93BF93CF93DF93EF9325
S1132760FF93CFE3D6E0688179818A819B812BE452
S113277039E546E05BE30E946815688379838A83C0
S11327809B836C817D818E819F812BE439E546E0BA
S11327905BE30E9468156C837D838E839F83FF9126
S11327A0EF91DF91CF91BF91AF919F918F917F91E5
S11327B06F915F914F913F912F910F900FBE0F90AA
S11327C01F901895CF93DF93CDB7DEB7A4970FB6BC
S11327D0F894DEBF0FBECDBF7894E9E6F0E08081C7
S11327E08A6080838DB383608DBB86E091E0909393
S11327F0C4068093C30689E0E5E2F1E0DE011196A8
S113280001900D928A95E1F71A8680E390E39C8704
S11328108B871D869F878E87188A20912F01309180
S113282030013A8B298B88E0FE017396DF01982FE3
S11328301D929A95E9F73C8F2B8F3A96DF011D92F2
S11328408A95E9F72FE130E14CEF5CE069E371E050
S11328508BE496E00E94D50540E060E970ED83E0EA
S113286090E00E94381360E87AE186E090E00E94EC
S1132870DB120E94141060E070E084E191E00E9499
S113288006110E9414108BE496E00E94CD0E60E0C5
S11328908BE496E00E94D80E61E08BE496E00E94FF
S11328A0E30E64E68BE496E00E94EE0E61E08FE1B5
S11328B091E00E949B1061E08FE191E00E94721010
S11328C060E082E291E00E949B108BE496E00E941B
S11328D09A0468E773E08BE496E00E94F9090F2EEE
S11328E0F3E0EF2EF12CF02D0AE110E02AE430E0C1
S11328F046E250E060E070E08BE496E00E949003D2
S11329000EE010E02AE430E049E150E060E070E0DD
S11329108BE496E00E94900324E931E040E450E027
S11329206DE470E08BE496E00E94A30927E931E0AE
S113293049E150E062E370E08BE496E00E94A30971
S11329408BE496E00E94B00483B7816083BF83B7B1
S1132950817F846083BF80913E068823E1F31092D7
S11329603E0684E191E00E943411E4E1F1E020812B
S1132970918182811F922F931F929F931F928F9315
S11329808CE991E09F938F93FE0131965F01FF9351
S1132990EF930E94461B0FE316E0D8011B968C911F
S11329A01B978F931A968C918F930F2EF6EAEF2E26
S11329B0F1E0FF2EF02DFF92EF926E01BBE0CB0E03
S11329C0D11CDF92CF920E94461BF80181858F9320
S11329D080858F93FF92EF924E01FEE08F0E911C43
S11329E09F928F920E94461BD80113968C91139745
S11329F08F9312968C9112978F9311968C911197B5
S1132A008F938C918F938BEA91E09F938F937E01A8
S1132A10B1E1EB0EF11CFF92EF920E94461BF8010C
S1132A2087818F9386818F9385818F9384818F9300
S1132A3082EB91E09F938F938E01055E1F4F1F934E
S1132A400F930E94461B0FB6F894DEBF0FBECDBF96
S1132A5066EB71E08BE496E00E94F909960149E186
S1132A6050E061E070E08BE496E00E94A30968E71F
S1132A7073E08BE496E00E94F90994014CE050E085
S1132A8062E370E08BE496E00E94A309970144E3BB
S1132A9050E065E070E08BE496E00E94A3099801A1
S1132AA040E450E065E070E08BE496E00E94A30906
S1132AB0950147E250E065E070E08BE496E00E9407
S1132AC0A3098BE496E00E94B004889544CF505843
S1132AD0BB27AA270E947F150C94EB150E94DD15D5
S1132AE038F00E94E41520F039F49F3F19F426F4DD
S1132AF00C94DA150EF4E095E7FB0C94D415E92F49
S1132B000E94FC1558F3BA176207730784079507E8
S1132B1020F079F4A6F50C941E160EF4E0950B2E15
S1132B20BA2FA02D0B01B90190010C01CA01A0011B
S1132B301124FF27591B99F0593F50F4503E68F176
S1132B401A16F040A22F232F342F4427585FF3CFB7
S1132B50469537952795A795F0405395C9F77EF488
S1132B601F16BA0B620B730B840BBAF09150A1F0D1
S1132B70FF0FBB1F661F771F881FC2F70EC0BA0F57
S1132B80621F731F841F48F4879577956795B795DF
S1132B90F7959E3F08F0B0CF9395880F08F09927DA
S1132BA0EE0F97958795089597F99F6780E870E0F1
S1132BB060E008959FEF80EC089500240A941616AF
S1132BC0170618060906089500240A941216130617
S1132BD0140605060895092E0394000C11F48823A5
S1132BE052F0BB0F40F4BF2B11F460FF04C06F5FC1
S1132BF07F4F8F4F9F4F089557FD9058440F551F97
S1132C0059F05F3F71F04795880F97FB991F61F06A
S1132C109F3F79F087950895121613061406551FE1
S1132C20F2CF4695F1DF08C0161617061806991F4D
S1132C30F1CF86957105610508940895E894BB2742
S1132C4066277727CB0197F90895A0E1B0E0EBE27E
S1132C50F6E10C94DE197C011B016A01FC01178268
S1132C601682838181FF44C39E012F5F3F4F390148
S1132C70F7019381F10193FD859193FF81911F01E8
S1132C80882309F431C3853239F493FD859193FF88
S1132C9081911F01853239F4B70190E00E940A1B2B
S1132CA056016501E5CF10E0512C912CFFE1F91597
S1132CB0D8F08B3279F038F4803279F08332A1F491
S1132CC0F92DF0612EC08D3261F0803369F4292D25
S1132CD021602DC0392D3260932E892D8460982E69
S1132CE02AC0E92DE86015C097FC2DC020ED280FFF
S1132CF02A3088F496FE06C03AE0139F200D112472
S1132D00122F19C08AE0589E200D1124522EE92D4D
S1132D10E0629E2E10C08E3231F496FCE5C2F92D8D
S1132D20F0649F2E08C08C3621F4292D2068922E41
S1132D3002C0883641F4F10193FD859193FF81919E
S1132D401F018111B3CF9BEB980F933020F4992D81
S1132D509061805E07C09BE9980F933008F066C1CC
S1132D60992D9F7E96FF16E09F73992E853619F450
S1132D709064992E08C0863621F4392F3068932E3A
S1132D8002C01111115097FE07C01C3350F44424A3
S1132D904394410E27E00BC0183038F027E017E0C9
S1132DA005C027E09CE3492E02C0212F412C560187
S1132DB084E0A80EB11CF601608171818281938147
S1132DC0042DA3010E94151A6C01F981FC87F0FF00
S1132DD002C0F3FF06C091FC06C092FE06C000E2EA
S1132DE005C00DE203C00BE201C000E08C858C70CD
S1132DF019F001115AC29BC297FE10C04C0CFC85FD
S1132E00F4FF04C08A81813309F44A94141474F5DC
S1132E1028E0241578F588E0482E2CC096FC2AC0BA
S1132E20812F90E08C159D059CF03CEFC3163FEF7D
S1132E30D30674F0892D8068982E0AC0E2E0F0E091
S1132E40EC0FFD1FE10FF11D8081803319F4115047
S1132E501111F4CF97FE0EC044244394410E812FE8
S1132E6090E0C816D9062CF41C1904C044244394D9
S1132E7001C010E097FE06C01C141D0434F4C60102
S1132E80019605C085E090E002C081E090E0011168
S1132E900196112331F0212F30E02F5F3F4F820F35
S1132EA0931F252D30E08217930714F4581A01C09C
S1132EB0512C892D897049F4552039F0B70180E2ED
S1132EC090E00E940A1B5A94F7CF002329F0B7011F
S1132ED0802F90E00E940A1B93FC09C0552039F012
S1132EE0B70180E390E00E940A1B5A94F7CF97FE43
S1132EF04CC04601D7FE02C0812C912CC601881912
S1132F009909F301E80FF91FFE87ED87960124194B
S1132F103109388B2F87012F10E011950195110984
S1132F203FEF8316930629F4B7018EE290E00E94E6
S1132F300A1BC814D9044CF08F8598898815990503
S1132F4024F4ED85FE85818101C080E3F1E08F1AD0
S1132F5091082D853E852F5F3F4F3E872D87801634
S1132F6091062CF0B70190E00E940A1BD9CFC81437
S1132F70D90441F49A81963320F4953319F43C85AD
S1132F8034FF81E3B70190E04EC08A81813319F0A8
S1132F909C859F7E9C87B70190E00E940A1B1111BB
S1132FA005C094FC18C085E690E017C0B7018EE216
S1132FB090E00E940A1B1E5F82E001E0080FF3010B
S1132FC0E80FF11D8081B70190E00E940A1B802F59
S1132FD00113F3CFE6CF85E490E0B7010E940A1B0A
S1132FE0D7FC06C0C114D10441F4EC85E4FF05C04C
S1132FF0D194C194D1088DE201C08BE2B70190E075
S11330000E940A1B80E32AE0C216D1042CF08F5FD1
S1133010FAE0CF1AD108F7CFB70190E00E940A1B5B
S1133020B701C601C0960E940A1B54C1833631F011
S1133030833779F0833509F056C020C0560132E059
S1133040A30EB11CF6018081898301E010E06301C5
S113305012C05601F2E0AF0EB11CF601C080D1805F
S113306096FE03C0612F70E002C06FEF7FEFC601D0
S11330700E94FF1A8C01F92DFF7714C0560122E03B
S1133080A20EB11CF601C080D18096FE03C0612F50
S113309070E002C06FEF7FEFC6010E94ED1A8C0151
S11330A0F92DF0689F2EF3FD1AC0852D90E00817C6
S11330B01907A8F4B70180E290E00E940A1B5A9411
S11330C0F4CFF60197FC859197FE81916F01B701CA
S11330D090E00E940A1B51105A94015011090115E5
S11330E0110579F7F7C0843611F0893661F5560178
S11330F097FE09C024E0A20EB11CF6016081718123
S1133100828193810AC0F2E0AF0EB11CF6016081A6
S11331107181072E000C880B990BF92DFF769F2ED9
S113312097FF09C090958095709561957F4F8F4F5B
S11331309F4FF0689F2E2AE030E0A3010E94681B95
S1133140C82EC6183FC0092D853721F40F7E2AE00A
S113315030E01DC0097F8F3691F018F4883559F09E
S1133160C3C0803719F0883711F0BEC0006104FF76
S113317009C0046007C094FE08C0066006C028E0C9
S113318030E005C020E130E002C020E132E0560129
S113319007FF09C084E0A80EB11CF60160817181AB
S11331A08281938108C0F2E0AF0EB11CF601608108
S11331B0718180E090E0A3010E94681BC82EC618AC
S11331C00F77902E96FE0BC0092D0E7FC11650F47A
S11331D094FE0AC092FC08C0092D0E7E05C0DC2CAA
S11331E0092D03C0DC2C01C0D12E04FF0DC0FE014B
S11331F0EC0DF11D8081803311F4097E09C002FFBA
S113320006C0D394D39404C0802F867809F0D39455
S113321003FD11C000FF06C01C2DD51480F4150D4C
S11332201D190DC0D51458F4B70180E290E00E9436
S11332300A1BD394F7CFD51410F45D1801C0512C98
S113324004FF10C0B70180E390E00E940A1B02FF54
S113325017C001FD03C088E790E002C088E590E054
S1133260B7010CC0802F867859F001FF02C08BE2B1
S113327001C080E207FD8DE2B70190E00E940A1BC5
S1133280C11638F4B70180E390E00E940A1B115084
S1133290F7CFCA94F301EC0DF11D8081B70190E0E2
S11332A00E940A1BC110F5CF15C0F4E0F51560F5B6
S11332B084E0581A93FE1FC0011127C02C8523FFF8
S11332C02AC004EB10E0392D3071932EF80184915B
S11332D0811124C0552009F4E4CCB70180E290E0C8
S11332E00E940A1B5A94F6CFF7018681978126C063
S11332F08FEF9FEF23C0B70180E290E00E940A1B8A
S11333005A945110F8CFD8CF512CB701802F90E0A8
S11333100E940A1BD3CF08EB10E0D5CF9110805246
S1133320B70190E00E940A1B0F5F1F4FCFCF23E02D
S1133330251510F483E0BDCF512CC0CF6096E2E197
S11333400C94FA19A1E21A2EAA1BBB1BFD010DC095
S1133350AA1FBB1FEE1FFF1FA217B307E407F50741
S113336020F0A21BB30BE40BF50B661F771F881F1D
S1133370991F1A9469F760957095809590959B01B3
S1133380AC01BD01CF010895A29FB001B39FC0015C
S1133390A39F700D811D1124911DB29F700D811D7D
S11333A01124911D08950E94C419A59F900DB49FE6
S11333B0900DA49F800D911D112408952F923F928A
S11333C04F925F926F927F928F929F92AF92BF9231
S11333D0CF92DF92EF92FF920F931F93CF93DF93DD
S11333E0CDB7DEB7CA1BDB0B0FB6F894DEBF0FBE3A
S11333F0CDBF09942A88398848885F846E847D8487
S11334008C849B84AA84B984C884DF80EE80FD8088
S11334100C811B81AA81B981CE0FD11D0FB6F894FE
S1133420DEBF0FBECDBFED010895283008F027E0C0
S11334303327DA01990F311D87FD916000966105EC
S1133440710539F432602E5F3D9330E32A95E1F73C
S113345008959F3F30F080387105610509F03C5FA5
S11334603C5F3D93913008F08068911DDF93CF93CA
S11334701F930F93FF92EF92192F987F9695E92F40
S113348096959695E90FFF27EA5EFE4F9927332715
S1133490EE24FF24A701E70105900894079428F47B
S11334A0360FE71EF81E491F511D660F771F881F30
S11334B0991F0694A1F70590079428F4E70EF81EC7
S11334C0491F561FC11D770F881F991F661F069439
S11334D0A1F70590079428F4F80E491F561FC71F3B
S11334E0D11D880F991F661F771F0694A1F70590B9
S11334F0079420F4490F561FC71FD81F990F661F42
S1133500771F881F0694A9F784911095177041F0CE
S1133510D695C79557954795F794E7941A95C1F7AB
S1133520ECEBF0E0689415901591359165919591C7
S113353005907FE27395E118F10A430B560BC90B12
S1133540D009C0F7E10CF11E431F561FC91FD01D3F
S11335507EF4703311F48A95E6CFE894015030F08C
S1133560080F0AF40027021708F4202F2395022FCE
S11335707A3328F079E37D932A95E9F710C07D9397
S11335802A9589F606949795679537951795179414
S1133590E118F10A430B560BC90BD00998F0239597
S11335A07E9173957A3308F070E37C932013B8F717
S11335B07E9170617D9330F0839571E37D9370E328
S11335C02A95E1F71124EF90FF900F911F91CF916D
S11335D0DF91992787FD90950895FC01059061502E
S11335E070400110D8F7809590958E0F9F1F089515
S11335F0DC0101C06D9341505040E0F70895FC0197
S11336006150704001900110D8F7809590958E0F0D
S11336109F1F08950F931F93CF93DF93FB01238183
S113362021FD03C08FEF9FEF2CC022FF16C04681FF
S11336305781248135814217530744F4A081B18115
S11336409D012F5F3F4F318320838C9326813781E7
S11336502F5F3F4F3783268314C08B01EC01FB019E
S11336600084F185E02D0995892BE1F6D8011696A1
S11336708D919C911797019617969C938E9316970C
S1133680CE01DF91CF911F910F910895AEE0B0E08C
S1133690ECE4FBE10C94EC190D891E8986E08C8323
S11336A01A8309838FEF9FE79E838D83AE01475E64
S11336B05F4F6F89788DCE0101960E942516EF81A8
S11336C0F885E00FF11F10822E96E4E00C94081A9E
S11336D0FA01AA27283051F1203181F1E8946F933F
S11336E06E7F6E5F7F4F8F4F9F4FAF4FB1E03ED0E5
S11336F0B4E03CD0670F781F891F9A1FA11D680F83
S1133700791F8A1F911DA11D6A0F711D811D911DB5
S1133710A11D20D009F468943F912AE0269F11242A
S11337203019305D3193DEF6CF010895462F47708E
S1133730405D4193B3E00FD0C9F7F6CF462F4F70E9
S1133740405D4A3318F0495D31FD4052419302D047
S1133750A9F7EACFB4E0A6959795879577956795ED
S1133760BA95C9F700976105710508959B01AC01ED
S11337700A2E06945795479537952795BA95C9F714
S1133780620F731F841F951FA01D0895F894FFCF27
S1133790014000F8010100000002000000006C1369
S11337A00000000000201610071700062500052E53
S11337B000022B000230303A30303A303000000042
S11337C0000000000000000000040C540C670C18FA
S11337D015E215AE154015A115C815A615A2152F8D
S11337E015F8160015271581160715AE15A519FF2E
S11337F0000196320101327800093D00000428508E
S113380010080004800040001815A015C019FF1806
S113381015A115C819FF1815AE15A519FF1815A47B
S113382015AF19FF4B4D004B4D2F48002530326426
S11338303A253032643A25303264002530382E334C
S10D384066002530382E32660000C1
S9030000FC
